{
  "address": "0x8925869e0d0fF478c516cC662F2217cfAC2d8e5d",
  "abi": [
    {
      "inputs": [],
      "stateMutability": "nonpayable",
      "type": "constructor"
    },
    {
      "anonymous": false,
      "inputs": [
        {
          "indexed": true,
          "internalType": "uint256",
          "name": "goalId",
          "type": "uint256"
        },
        {
          "indexed": true,
          "internalType": "address",
          "name": "user",
          "type": "address"
        },
        {
          "indexed": false,
          "internalType": "uint256",
          "name": "amount",
          "type": "uint256"
        }
      ],
      "name": "FundsReleased",
      "type": "event"
    },
    {
      "anonymous": false,
      "inputs": [
        {
          "indexed": true,
          "internalType": "uint256",
          "name": "goalId",
          "type": "uint256"
        },
        {
          "indexed": true,
          "internalType": "address",
          "name": "judge",
          "type": "address"
        }
      ],
      "name": "GoalApproved",
      "type": "event"
    },
    {
      "anonymous": false,
      "inputs": [
        {
          "indexed": true,
          "internalType": "uint256",
          "name": "goalId",
          "type": "uint256"
        }
      ],
      "name": "GoalCompleted",
      "type": "event"
    },
    {
      "anonymous": false,
      "inputs": [
        {
          "indexed": true,
          "internalType": "uint256",
          "name": "goalId",
          "type": "uint256"
        },
        {
          "indexed": true,
          "internalType": "address",
          "name": "user",
          "type": "address"
        },
        {
          "indexed": false,
          "internalType": "string",
          "name": "description",
          "type": "string"
        },
        {
          "indexed": false,
          "internalType": "uint256",
          "name": "stake",
          "type": "uint256"
        }
      ],
      "name": "GoalCreated",
      "type": "event"
    },
    {
      "anonymous": false,
      "inputs": [
        {
          "indexed": true,
          "internalType": "uint256",
          "name": "goalId",
          "type": "uint256"
        },
        {
          "indexed": true,
          "internalType": "address",
          "name": "judge",
          "type": "address"
        }
      ],
      "name": "JudgeInvited",
      "type": "event"
    },
    {
      "anonymous": false,
      "inputs": [
        {
          "indexed": true,
          "internalType": "uint256",
          "name": "goalId",
          "type": "uint256"
        },
        {
          "indexed": false,
          "internalType": "uint256",
          "name": "milestoneIndex",
          "type": "uint256"
        }
      ],
      "name": "MilestoneAchieved",
      "type": "event"
    },
    {
      "anonymous": false,
      "inputs": [
        {
          "indexed": true,
          "internalType": "uint256",
          "name": "goalId",
          "type": "uint256"
        },
        {
          "indexed": false,
          "internalType": "uint256",
          "name": "milestoneIndex",
          "type": "uint256"
        },
        {
          "indexed": false,
          "internalType": "string",
          "name": "description",
          "type": "string"
        }
      ],
      "name": "MilestoneAdded",
      "type": "event"
    },
    {
      "anonymous": false,
      "inputs": [
        {
          "indexed": true,
          "internalType": "uint256",
          "name": "goalId",
          "type": "uint256"
        },
        {
          "indexed": false,
          "internalType": "uint256",
          "name": "requiredApprovals",
          "type": "uint256"
        }
      ],
      "name": "RequiredApprovalsSet",
      "type": "event"
    },
    {
      "anonymous": false,
      "inputs": [
        {
          "indexed": true,
          "internalType": "bytes32",
          "name": "role",
          "type": "bytes32"
        },
        {
          "indexed": true,
          "internalType": "bytes32",
          "name": "previousAdminRole",
          "type": "bytes32"
        },
        {
          "indexed": true,
          "internalType": "bytes32",
          "name": "newAdminRole",
          "type": "bytes32"
        }
      ],
      "name": "RoleAdminChanged",
      "type": "event"
    },
    {
      "anonymous": false,
      "inputs": [
        {
          "indexed": true,
          "internalType": "bytes32",
          "name": "role",
          "type": "bytes32"
        },
        {
          "indexed": true,
          "internalType": "address",
          "name": "account",
          "type": "address"
        },
        {
          "indexed": true,
          "internalType": "address",
          "name": "sender",
          "type": "address"
        }
      ],
      "name": "RoleGranted",
      "type": "event"
    },
    {
      "anonymous": false,
      "inputs": [
        {
          "indexed": true,
          "internalType": "bytes32",
          "name": "role",
          "type": "bytes32"
        },
        {
          "indexed": true,
          "internalType": "address",
          "name": "account",
          "type": "address"
        },
        {
          "indexed": true,
          "internalType": "address",
          "name": "sender",
          "type": "address"
        }
      ],
      "name": "RoleRevoked",
      "type": "event"
    },
    {
      "inputs": [],
      "name": "DEFAULT_ADMIN_ROLE",
      "outputs": [
        {
          "internalType": "bytes32",
          "name": "",
          "type": "bytes32"
        }
      ],
      "stateMutability": "view",
      "type": "function"
    },
    {
      "inputs": [
        {
          "internalType": "uint256",
          "name": "_goalId",
          "type": "uint256"
        },
        {
          "internalType": "uint256",
          "name": "_milestoneIndex",
          "type": "uint256"
        }
      ],
      "name": "achieveMilestone",
      "outputs": [],
      "stateMutability": "nonpayable",
      "type": "function"
    },
    {
      "inputs": [
        {
          "internalType": "uint256",
          "name": "_goalId",
          "type": "uint256"
        }
      ],
      "name": "approveGoal",
      "outputs": [],
      "stateMutability": "nonpayable",
      "type": "function"
    },
    {
      "inputs": [
        {
          "internalType": "string",
          "name": "_description",
          "type": "string"
        },
        {
          "internalType": "address[]",
          "name": "_judges",
          "type": "address[]"
        },
        {
          "internalType": "string[]",
          "name": "_milestoneDescriptions",
          "type": "string[]"
        },
        {
          "internalType": "uint8",
          "name": "_requiredApprovals",
          "type": "uint8"
        }
      ],
      "name": "createGoal",
      "outputs": [],
      "stateMutability": "payable",
      "type": "function"
    },
    {
      "inputs": [
        {
          "internalType": "uint256",
          "name": "_goalId",
          "type": "uint256"
        }
      ],
      "name": "getGoalDetails",
      "outputs": [
        {
          "internalType": "address",
          "name": "user",
          "type": "address"
        },
        {
          "internalType": "string",
          "name": "description",
          "type": "string"
        },
        {
          "internalType": "uint256",
          "name": "stake",
          "type": "uint256"
        },
        {
          "internalType": "address[]",
          "name": "judges",
          "type": "address[]"
        },
        {
          "internalType": "uint8",
          "name": "requiredApprovals",
          "type": "uint8"
        },
        {
          "internalType": "uint8",
          "name": "currentApprovals",
          "type": "uint8"
        },
        {
          "internalType": "bool[]",
          "name": "verifiedApprovals",
          "type": "bool[]"
        },
        {
          "internalType": "string[]",
          "name": "milestoneDescriptions",
          "type": "string[]"
        },
        {
          "internalType": "bool[]",
          "name": "milestoneAchieved",
          "type": "bool[]"
        },
        {
          "internalType": "bool",
          "name": "completed",
          "type": "bool"
        },
        {
          "internalType": "bool",
          "name": "fundsReleased",
          "type": "bool"
        }
      ],
      "stateMutability": "view",
      "type": "function"
    },
    {
      "inputs": [
        {
          "internalType": "bytes32",
          "name": "role",
          "type": "bytes32"
        }
      ],
      "name": "getRoleAdmin",
      "outputs": [
        {
          "internalType": "bytes32",
          "name": "",
          "type": "bytes32"
        }
      ],
      "stateMutability": "view",
      "type": "function"
    },
    {
      "inputs": [
        {
          "internalType": "address",
          "name": "",
          "type": "address"
        }
      ],
      "name": "goalNonce",
      "outputs": [
        {
          "internalType": "uint256",
          "name": "",
          "type": "uint256"
        }
      ],
      "stateMutability": "view",
      "type": "function"
    },
    {
      "inputs": [
        {
          "internalType": "uint256",
          "name": "",
          "type": "uint256"
        }
      ],
      "name": "goals",
      "outputs": [
        {
          "internalType": "address",
          "name": "user",
          "type": "address"
        },
        {
          "internalType": "string",
          "name": "description",
          "type": "string"
        },
        {
          "internalType": "uint256",
          "name": "stake",
          "type": "uint256"
        },
        {
          "internalType": "uint8",
          "name": "requiredApprovals",
          "type": "uint8"
        },
        {
          "internalType": "uint8",
          "name": "currentApprovals",
          "type": "uint8"
        },
        {
          "internalType": "bool",
          "name": "completed",
          "type": "bool"
        },
        {
          "internalType": "bool",
          "name": "fundsReleased",
          "type": "bool"
        }
      ],
      "stateMutability": "view",
      "type": "function"
    },
    {
      "inputs": [
        {
          "internalType": "bytes32",
          "name": "role",
          "type": "bytes32"
        },
        {
          "internalType": "address",
          "name": "account",
          "type": "address"
        }
      ],
      "name": "grantRole",
      "outputs": [],
      "stateMutability": "nonpayable",
      "type": "function"
    },
    {
      "inputs": [
        {
          "internalType": "bytes32",
          "name": "role",
          "type": "bytes32"
        },
        {
          "internalType": "address",
          "name": "account",
          "type": "address"
        }
      ],
      "name": "hasRole",
      "outputs": [
        {
          "internalType": "bool",
          "name": "",
          "type": "bool"
        }
      ],
      "stateMutability": "view",
      "type": "function"
    },
    {
      "inputs": [
        {
          "internalType": "bytes32",
          "name": "role",
          "type": "bytes32"
        },
        {
          "internalType": "address",
          "name": "account",
          "type": "address"
        }
      ],
      "name": "renounceRole",
      "outputs": [],
      "stateMutability": "nonpayable",
      "type": "function"
    },
    {
      "inputs": [
        {
          "internalType": "bytes32",
          "name": "role",
          "type": "bytes32"
        },
        {
          "internalType": "address",
          "name": "account",
          "type": "address"
        }
      ],
      "name": "revokeRole",
      "outputs": [],
      "stateMutability": "nonpayable",
      "type": "function"
    },
    {
      "inputs": [
        {
          "internalType": "bytes4",
          "name": "interfaceId",
          "type": "bytes4"
        }
      ],
      "name": "supportsInterface",
      "outputs": [
        {
          "internalType": "bool",
          "name": "",
          "type": "bool"
        }
      ],
      "stateMutability": "view",
      "type": "function"
    },
    {
      "inputs": [
        {
          "internalType": "uint256",
          "name": "_amount",
          "type": "uint256"
        }
      ],
      "name": "withdrawFunds",
      "outputs": [],
      "stateMutability": "nonpayable",
      "type": "function"
    }
  ],
  "transactionHash": "0x8ea05eb1788898eeb476dd1efbf5574f25aec106a29d56cd8d9b1b7e8ff8f080",
  "args": [],
  "numDeployments": 1,
  "solcInputHash": "25f6c65b8192333dcaa4a1139521603d",
  "bytecode": "0x608060405234801561001057600080fd5b50600160009081556100229033610027565b6100bc565b6100318282610035565b5050565b60008281526001602090815260408083206001600160a01b038516845290915290205460ff166100315760008281526001602081815260408084206001600160a01b0386168086529252808420805460ff19169093179092559051339285917f2f8788117e7eff1d82e926ec794901d17c78024a50270940304540a733656f0d9190a45050565b611feb80620000cc6000396000f3fe6080604052600436106100dd5760003560e01c806361449ca21161007f578063a217fddf11610059578063a217fddf1461028f578063a61e9084146102a4578063bc143c96146102b7578063d547741f146102d757600080fd5b806361449ca21461020557806371444dd01461023857806391d148541461026f57600080fd5b8063248a9ca3116100bb578063248a9ca3146101745780632f2ff15d146101a557806336568abe146101c5578063540bdbd2146101e557600080fd5b806301ffc9a7146100e2578063155dd5ee146101175780632049b87314610139575b600080fd5b3480156100ee57600080fd5b506101026100fd3660046117a9565b6102f7565b60405190151581526020015b60405180910390f35b34801561012357600080fd5b506101376101323660046117d3565b61032e565b005b34801561014557600080fd5b50610166610154366004611808565b60036020526000908152604090205481565b60405190815260200161010e565b34801561018057600080fd5b5061016661018f3660046117d3565b6000908152600160208190526040909120015490565b3480156101b157600080fd5b506101376101c0366004611823565b6103c0565b3480156101d157600080fd5b506101376101e0366004611823565b6103e6565b3480156101f157600080fd5b5061013761020036600461184f565b610464565b34801561021157600080fd5b506102256102203660046117d3565b610678565b60405161010e97969594939291906118c1565b34801561024457600080fd5b506102586102533660046117d3565b61074f565b60405161010e9b9a999897969594939291906119a9565b34801561027b57600080fd5b5061010261028a366004611823565b610a8b565b34801561029b57600080fd5b50610166600081565b6101376102b2366004611c09565b610ab6565b3480156102c357600080fd5b506101376102d23660046117d3565b610f03565b3480156102e357600080fd5b506101376102f2366004611823565b611189565b60006001600160e01b03198216637965db0b60e01b148061032857506301ffc9a760e01b6001600160e01b03198316145b92915050565b6000610339816111af565b4782111561038e5760405162461bcd60e51b815260206004820152601d60248201527f496e73756666696369656e7420636f6e74726163742062616c616e636500000060448201526064015b60405180910390fd5b604051339083156108fc029084906000818181858888f193505050501580156103bb573d6000803e3d6000fd5b505050565b600082815260016020819052604090912001546103dc816111af565b6103bb83836111b9565b6001600160a01b03811633146104565760405162461bcd60e51b815260206004820152602f60248201527f416363657373436f6e74726f6c3a2063616e206f6e6c792072656e6f756e636560448201526e103937b632b9903337b91039b2b63360891b6064820152608401610385565b6104608282611224565b5050565b600082815260026020526040902080546001600160a01b031633146104dc5760405162461bcd60e51b815260206004820152602860248201527f4f6e6c7920676f616c2063726561746f722063616e2061636869657665206d696044820152676c6573746f6e657360c01b6064820152608401610385565b6007810154821061052f5760405162461bcd60e51b815260206004820152601760248201527f496e76616c6964206d696c6573746f6e6520696e6465780000000000000000006044820152606401610385565b80600701828154811061054457610544611cfd565b90600052602060002090602091828204019190069054906101000a900460ff16156105b15760405162461bcd60e51b815260206004820152601a60248201527f4d696c6573746f6e6520616c72656164792061636869657665640000000000006044820152606401610385565b60018160070183815481106105c8576105c8611cfd565b90600052602060002090602091828204019190066101000a81548160ff021916908315150217905550827fef71bb2c18b916e2735c6d7bde267d92271147307baf10ba7a3e9b9cb3a880b48360405161062391815260200190565b60405180910390a26106348361128b565b156103bb5760088101805460ff1916600117905560405183907f64e68ade6bce7f723a972cc4e1f0eef423b70983429960ebad16879387a86bde90600090a2505050565b600260205260009081526040902080546001820180546001600160a01b0390921692916106a490611d13565b80601f01602080910402602001604051908101604052809291908181526020018280546106d090611d13565b801561071d5780601f106106f25761010080835404028352916020019161071d565b820191906000526020600020905b81548152906001019060200180831161070057829003601f168201915b50505050600283015460048401546008909401549293909260ff80831693506101009283900481169281831692041687565b600081815260026020819052604082208054918101546004820154600883015460018401805460609688968896889687968996879687968a96879690956001600160a01b03909216949092600387019260ff808216936101009283900482169360058b019360068c019360078d01938082169392900416908a906107d290611d13565b80601f01602080910402602001604051908101604052809291908181526020018280546107fe90611d13565b801561084b5780601f106108205761010080835404028352916020019161084b565b820191906000526020600020905b81548152906001019060200180831161082e57829003601f168201915b50505050509950878054806020026020016040519081016040528092919081815260200182805480156108a757602002820191906000526020600020905b81546001600160a01b03168152600190910190602001808311610889575b505050505097508480548060200260200160405190810160405280929190818152602001828054801561091957602002820191906000526020600020906000905b825461010083900a900460ff1615158152602060019283018181049485019490930390920291018084116108e85790505b5050505050945083805480602002602001604051908101604052809291908181526020016000905b828210156109ed57838290600052602060002001805461096090611d13565b80601f016020809104026020016040519081016040528092919081815260200182805461098c90611d13565b80156109d95780601f106109ae576101008083540402835291602001916109d9565b820191906000526020600020905b8154815290600101906020018083116109bc57829003601f168201915b505050505081526020019060010190610941565b50505050935082805480602002602001604051908101604052809291908181526020018280548015610a5e57602002820191906000526020600020906000905b825461010083900a900460ff161515815260206001928301818104948501949093039092029101808411610a2d5790505b505050505092509b509b509b509b509b509b509b509b509b509b509b505091939597999b90929496989a50565b60009182526001602090815260408084206001600160a01b0393909316845291905290205460ff1690565b610abe611306565b60003411610b0e5760405162461bcd60e51b815260206004820152601c60248201527f5374616b65206d7573742062652067726561746572207468616e2030000000006044820152606401610385565b6000835111610b5f5760405162461bcd60e51b815260206004820152601e60248201527f4174206c65617374206f6e65206a7564676520697320726571756972656400006044820152606401610385565b610100835110610ba35760405162461bcd60e51b815260206004820152600f60248201526e546f6f206d616e79206a756467657360881b6044820152606401610385565b6000825111610bff5760405162461bcd60e51b815260206004820152602260248201527f4174206c65617374206f6e65206d696c6573746f6e6520697320726571756972604482015261195960f21b6064820152608401610385565b60008160ff16118015610c16575082518160ff1611155b610c6e5760405162461bcd60e51b8152602060048201526024808201527f496e76616c6964206e756d626572206f6620726571756972656420617070726f60448201526376616c7360e01b6064820152608401610385565b33600090815260036020526040812080549082610c8a83611d63565b90915550600081815260026020526040902080546001600160a01b0319163317815590915060018101610cbd8782611dca565b503460028201558451610cd9906003830190602088019061172f565b5060048101805460ff191660ff851617905560005b8551811015610d8c5760058201805460018101825560009182526020918290209181049091018054601f9092166101000a60ff021990911690558551869082908110610d3c57610d3c611cfd565b60200260200101516001600160a01b0316837f3c27c02eb6e2b17241e7ca6fa7a59a27d61c2713a28f5652148bc1fbb65a595f60405160405180910390a380610d8481611d63565b915050610cee565b5060005b8451811015610e745781600601858281518110610daf57610daf611cfd565b60209081029190910181015182546001810184556000938452919092200190610dd89082611dca565b5060078201805460018101825560009182526020918290209181049091018054601f9092166101000a60ff02199091169055845183907fe67e4500ba1c5a33e0bb3c97b84e34eb7f637c3da038f433e1d77ba82e221dac908390889082908110610e4457610e44611cfd565b6020026020010151604051610e5a929190611e8a565b60405180910390a280610e6c81611d63565b915050610d90565b50336001600160a01b0316827ffd43d0275d4eca5919abed0968d926f051b32d154186098c880850d57428c2e08834604051610eb1929190611eab565b60405180910390a360405160ff8416815282907fe3b214cc854ca896592f75cf23b5cf6c678b407bc460430cc6f1ea93061a9fe49060200160405180910390a25050610efd6001600055565b50505050565b610f0b611306565b600081815260026020526040812090610f24833361135f565b90506101008110610f695760405162461bcd60e51b815260206004820152600f60248201526e129d5919d9481b9bdd08199bdd5b99608a1b6044820152606401610385565b600882015460ff16610fd55760405162461bcd60e51b815260206004820152602f60248201527f416c6c206d696c6573746f6e6573206d7573742062652061636869657665642060448201526e1899599bdc9948185c1c1c9bdd985b608a1b6064820152608401610385565b6008820154610100900460ff16156110285760405162461bcd60e51b8152602060048201526016602482015275119d5b991cc8185b1c9958591e481c995b19585cd95960521b6044820152606401610385565b81600501818154811061103d5761103d611cfd565b90600052602060002090602091828204019190069054906101000a900460ff16156110aa5760405162461bcd60e51b815260206004820152601a60248201527f4a756467652068617320616c726561647920617070726f7665640000000000006044820152606401610385565b60018260050182815481106110c1576110c1611cfd565b90600052602060002090602091828204019190066101000a81548160ff02191690831515021790555081600401600181819054906101000a900460ff168092919061110b90611ecd565b91906101000a81548160ff021916908360ff16021790555050336001600160a01b0316837f4f913434dd45d466b165ce6d739d17ab57ed310a07c4909b2034286e27d8f6c660405160405180910390a3600482015460ff808216610100909204160361117a5761117a836113db565b50506111866001600055565b50565b600082815260016020819052604090912001546111a5816111af565b6103bb8383611224565b6111868133611521565b6111c38282610a8b565b6104605760008281526001602081815260408084206001600160a01b0386168086529252808420805460ff19169093179092559051339285917f2f8788117e7eff1d82e926ec794901d17c78024a50270940304540a733656f0d9190a45050565b61122e8282610a8b565b156104605760008281526001602090815260408083206001600160a01b0385168085529252808320805460ff1916905551339285917ff6391f5c32d9c69d2a47ea670b442974b53935d1edc7fd64eb21e047a839171b9190a45050565b6000818152600260205260408120815b60078201548110156112fc578160070181815481106112bc576112bc611cfd565b90600052602060002090602091828204019190069054906101000a900460ff166112ea575060009392505050565b806112f481611d63565b91505061129b565b5060019392505050565b6002600054036113585760405162461bcd60e51b815260206004820152601f60248201527f5265656e7472616e637947756172643a207265656e7472616e742063616c6c006044820152606401610385565b6002600055565b6000828152600260205260408120815b60038201548110156113cf57836001600160a01b031682600301828154811061139a5761139a611cfd565b6000918252602090912001546001600160a01b0316036113bd5791506103289050565b806113c781611d63565b91505061136f565b50610100949350505050565b6000818152600260205260409020600881015460ff166114325760405162461bcd60e51b815260206004820152601260248201527111dbd85b081b9bdd0818dbdb5c1b195d195960721b6044820152606401610385565b6008810154610100900460ff16156114855760405162461bcd60e51b8152602060048201526016602482015275119d5b991cc8185b1c9958591e481c995b19585cd95960521b6044820152606401610385565b60088101805461ff001916610100179055805460028201546040516001600160a01b039092169184917f6e3c6096795c8298a218b2cfb8bde42726ff7c9a3d27b4d3ba41ab7f74feb5fb916114dc91815260200190565b60405180910390a3805460028201546040516001600160a01b039092169181156108fc0291906000818181858888f193505050501580156103bb573d6000803e3d6000fd5b61152b8282610a8b565b610460576115388161157a565b61154383602061158c565b604051602001611554929190611eec565b60408051601f198184030181529082905262461bcd60e51b825261038591600401611f61565b60606103286001600160a01b03831660145b6060600061159b836002611f74565b6115a6906002611f8b565b67ffffffffffffffff8111156115be576115be611a8d565b6040519080825280601f01601f1916602001820160405280156115e8576020820181803683370190505b509050600360fc1b8160008151811061160357611603611cfd565b60200101906001600160f81b031916908160001a905350600f60fb1b8160018151811061163257611632611cfd565b60200101906001600160f81b031916908160001a9053506000611656846002611f74565b611661906001611f8b565b90505b60018111156116d9576f181899199a1a9b1b9c1cb0b131b232b360811b85600f166010811061169557611695611cfd565b1a60f81b8282815181106116ab576116ab611cfd565b60200101906001600160f81b031916908160001a90535060049490941c936116d281611f9e565b9050611664565b5083156117285760405162461bcd60e51b815260206004820181905260248201527f537472696e67733a20686578206c656e67746820696e73756666696369656e746044820152606401610385565b9392505050565b828054828255906000526020600020908101928215611784579160200282015b8281111561178457825182546001600160a01b0319166001600160a01b0390911617825560209092019160019091019061174f565b50611790929150611794565b5090565b5b808211156117905760008155600101611795565b6000602082840312156117bb57600080fd5b81356001600160e01b03198116811461172857600080fd5b6000602082840312156117e557600080fd5b5035919050565b80356001600160a01b038116811461180357600080fd5b919050565b60006020828403121561181a57600080fd5b611728826117ec565b6000806040838503121561183657600080fd5b82359150611846602084016117ec565b90509250929050565b6000806040838503121561186257600080fd5b50508035926020909101359150565b60005b8381101561188c578181015183820152602001611874565b50506000910152565b600081518084526118ad816020860160208601611871565b601f01601f19169290920160200192915050565b6001600160a01b038816815260e0602082018190526000906118e590830189611895565b60408301979097525060ff9485166060820152929093166080830152151560a082015290151560c09091015292915050565b600081518084526020808501945080840160005b8381101561194957815115158752958201959082019060010161192b565b509495945050505050565b600081518084526020808501808196508360051b8101915082860160005b8581101561199c57828403895261198a848351611895565b98850198935090840190600101611972565b5091979650505050505050565b6001600160a01b038c81168252610160602083018190526000916119cf8483018f611895565b604085018e905284810360608601528c518082526020808f0194509091019060005b81811015611a1157845184168352602094850194909201916001016119f1565b505060ff8c16608086015260ff8b1660a086015284810360c0860152611a37818b611917565b9250505082810360e0840152611a4d8188611954565b9050828103610100840152611a628187611917565b915050611a7461012083018515159052565b8215156101408301529c9b505050505050505050505050565b634e487b7160e01b600052604160045260246000fd5b604051601f8201601f1916810167ffffffffffffffff81118282101715611acc57611acc611a8d565b604052919050565b600082601f830112611ae557600080fd5b813567ffffffffffffffff811115611aff57611aff611a8d565b611b12601f8201601f1916602001611aa3565b818152846020838601011115611b2757600080fd5b816020850160208301376000918101602001919091529392505050565b600067ffffffffffffffff821115611b5e57611b5e611a8d565b5060051b60200190565b600082601f830112611b7957600080fd5b81356020611b8e611b8983611b44565b611aa3565b82815260059290921b84018101918181019086841115611bad57600080fd5b8286015b84811015611bed57803567ffffffffffffffff811115611bd15760008081fd5b611bdf8986838b0101611ad4565b845250918301918301611bb1565b509695505050505050565b803560ff8116811461180357600080fd5b60008060008060808587031215611c1f57600080fd5b843567ffffffffffffffff80821115611c3757600080fd5b611c4388838901611ad4565b9550602091508187013581811115611c5a57600080fd5b8701601f81018913611c6b57600080fd5b8035611c79611b8982611b44565b81815260059190911b8201840190848101908b831115611c9857600080fd5b928501925b82841015611cbd57611cae846117ec565b82529285019290850190611c9d565b97505050506040870135915080821115611cd657600080fd5b50611ce387828801611b68565b925050611cf260608601611bf8565b905092959194509250565b634e487b7160e01b600052603260045260246000fd5b600181811c90821680611d2757607f821691505b602082108103611d4757634e487b7160e01b600052602260045260246000fd5b50919050565b634e487b7160e01b600052601160045260246000fd5b600060018201611d7557611d75611d4d565b5060010190565b601f8211156103bb57600081815260208120601f850160051c81016020861015611da35750805b601f850160051c820191505b81811015611dc257828155600101611daf565b505050505050565b815167ffffffffffffffff811115611de457611de4611a8d565b611df881611df28454611d13565b84611d7c565b602080601f831160018114611e2d5760008415611e155750858301515b600019600386901b1c1916600185901b178555611dc2565b600085815260208120601f198616915b82811015611e5c57888601518255948401946001909101908401611e3d565b5085821015611e7a5787850151600019600388901b60f8161c191681555b5050505050600190811b01905550565b828152604060208201526000611ea36040830184611895565b949350505050565b604081526000611ebe6040830185611895565b90508260208301529392505050565b600060ff821660ff8103611ee357611ee3611d4d565b60010192915050565b7f416363657373436f6e74726f6c3a206163636f756e7420000000000000000000815260008351611f24816017850160208801611871565b7001034b99036b4b9b9b4b733903937b6329607d1b6017918401918201528351611f55816028840160208801611871565b01602801949350505050565b6020815260006117286020830184611895565b808202811582820484141761032857610328611d4d565b8082018082111561032857610328611d4d565b600081611fad57611fad611d4d565b50600019019056fea26469706673582212200819b9857629ff885295bc23efc885cd6b2308503939bebda758422b7b41f11564736f6c63430008110033",
  "devdoc": {
    "details": "A decentralized accountability contract for setting and achieving personal goals with milestones",
    "kind": "dev",
    "methods": {
      "createGoal(string,address[],string[],uint8)": {
        "details": "Creates a new goal with the specified description, judges, and milestones.",
        "params": {
          "_description": "The description of the goal.",
          "_judges": "The addresses of the judges.",
          "_milestoneDescriptions": "The descriptions of the milestones.",
          "_requiredApprovals": "The number of approvals required."
        }
      },
      "getRoleAdmin(bytes32)": {
        "details": "Returns the admin role that controls `role`. See {grantRole} and {revokeRole}. To change a role's admin, use {_setRoleAdmin}."
      },
      "grantRole(bytes32,address)": {
        "details": "Grants `role` to `account`. If `account` had not been already granted `role`, emits a {RoleGranted} event. Requirements: - the caller must have ``role``'s admin role. May emit a {RoleGranted} event."
      },
      "hasRole(bytes32,address)": {
        "details": "Returns `true` if `account` has been granted `role`."
      },
      "renounceRole(bytes32,address)": {
        "details": "Revokes `role` from the calling account. Roles are often managed via {grantRole} and {revokeRole}: this function's purpose is to provide a mechanism for accounts to lose their privileges if they are compromised (such as when a trusted device is misplaced). If the calling account had been revoked `role`, emits a {RoleRevoked} event. Requirements: - the caller must be `account`. May emit a {RoleRevoked} event."
      },
      "revokeRole(bytes32,address)": {
        "details": "Revokes `role` from `account`. If `account` had been granted `role`, emits a {RoleRevoked} event. Requirements: - the caller must have ``role``'s admin role. May emit a {RoleRevoked} event."
      },
      "supportsInterface(bytes4)": {
        "details": "See {IERC165-supportsInterface}."
      }
    },
    "title": "Akuntabel",
    "version": 1
  },
  "userdoc": {
    "kind": "user",
    "methods": {},
    "version": 1
  },
  "storageLayout": {
    "storage": [
      {
        "astId": 399,
        "contract": "contracts/Akuntabel.sol:Akuntabel",
        "label": "_status",
        "offset": 0,
        "slot": "0",
        "type": "t_uint256"
      },
      {
        "astId": 24,
        "contract": "contracts/Akuntabel.sol:Akuntabel",
        "label": "_roles",
        "offset": 0,
        "slot": "1",
        "type": "t_mapping(t_bytes32,t_struct(RoleData)19_storage)"
      },
      {
        "astId": 1581,
        "contract": "contracts/Akuntabel.sol:Akuntabel",
        "label": "goals",
        "offset": 0,
        "slot": "2",
        "type": "t_mapping(t_uint256,t_struct(Goal)1576_storage)"
      },
      {
        "astId": 1585,
        "contract": "contracts/Akuntabel.sol:Akuntabel",
        "label": "goalNonce",
        "offset": 0,
        "slot": "3",
        "type": "t_mapping(t_address,t_uint256)"
      }
    ],
    "types": {
      "t_address": {
        "encoding": "inplace",
        "label": "address",
        "numberOfBytes": "20"
      },
      "t_array(t_address)dyn_storage": {
        "base": "t_address",
        "encoding": "dynamic_array",
        "label": "address[]",
        "numberOfBytes": "32"
      },
      "t_array(t_bool)dyn_storage": {
        "base": "t_bool",
        "encoding": "dynamic_array",
        "label": "bool[]",
        "numberOfBytes": "32"
      },
      "t_array(t_string_storage)dyn_storage": {
        "base": "t_string_storage",
        "encoding": "dynamic_array",
        "label": "string[]",
        "numberOfBytes": "32"
      },
      "t_bool": {
        "encoding": "inplace",
        "label": "bool",
        "numberOfBytes": "1"
      },
      "t_bytes32": {
        "encoding": "inplace",
        "label": "bytes32",
        "numberOfBytes": "32"
      },
      "t_mapping(t_address,t_bool)": {
        "encoding": "mapping",
        "key": "t_address",
        "label": "mapping(address => bool)",
        "numberOfBytes": "32",
        "value": "t_bool"
      },
      "t_mapping(t_address,t_uint256)": {
        "encoding": "mapping",
        "key": "t_address",
        "label": "mapping(address => uint256)",
        "numberOfBytes": "32",
        "value": "t_uint256"
      },
      "t_mapping(t_bytes32,t_struct(RoleData)19_storage)": {
        "encoding": "mapping",
        "key": "t_bytes32",
        "label": "mapping(bytes32 => struct AccessControl.RoleData)",
        "numberOfBytes": "32",
        "value": "t_struct(RoleData)19_storage"
      },
      "t_mapping(t_uint256,t_struct(Goal)1576_storage)": {
        "encoding": "mapping",
        "key": "t_uint256",
        "label": "mapping(uint256 => struct Akuntabel.Goal)",
        "numberOfBytes": "32",
        "value": "t_struct(Goal)1576_storage"
      },
      "t_string_storage": {
        "encoding": "bytes",
        "label": "string",
        "numberOfBytes": "32"
      },
      "t_struct(Goal)1576_storage": {
        "encoding": "inplace",
        "label": "struct Akuntabel.Goal",
        "members": [
          {
            "astId": 1551,
            "contract": "contracts/Akuntabel.sol:Akuntabel",
            "label": "user",
            "offset": 0,
            "slot": "0",
            "type": "t_address"
          },
          {
            "astId": 1553,
            "contract": "contracts/Akuntabel.sol:Akuntabel",
            "label": "description",
            "offset": 0,
            "slot": "1",
            "type": "t_string_storage"
          },
          {
            "astId": 1555,
            "contract": "contracts/Akuntabel.sol:Akuntabel",
            "label": "stake",
            "offset": 0,
            "slot": "2",
            "type": "t_uint256"
          },
          {
            "astId": 1558,
            "contract": "contracts/Akuntabel.sol:Akuntabel",
            "label": "judges",
            "offset": 0,
            "slot": "3",
            "type": "t_array(t_address)dyn_storage"
          },
          {
            "astId": 1560,
            "contract": "contracts/Akuntabel.sol:Akuntabel",
            "label": "requiredApprovals",
            "offset": 0,
            "slot": "4",
            "type": "t_uint8"
          },
          {
            "astId": 1562,
            "contract": "contracts/Akuntabel.sol:Akuntabel",
            "label": "currentApprovals",
            "offset": 1,
            "slot": "4",
            "type": "t_uint8"
          },
          {
            "astId": 1565,
            "contract": "contracts/Akuntabel.sol:Akuntabel",
            "label": "verifiedApprovals",
            "offset": 0,
            "slot": "5",
            "type": "t_array(t_bool)dyn_storage"
          },
          {
            "astId": 1568,
            "contract": "contracts/Akuntabel.sol:Akuntabel",
            "label": "milestoneDescriptions",
            "offset": 0,
            "slot": "6",
            "type": "t_array(t_string_storage)dyn_storage"
          },
          {
            "astId": 1571,
            "contract": "contracts/Akuntabel.sol:Akuntabel",
            "label": "milestoneAchieved",
            "offset": 0,
            "slot": "7",
            "type": "t_array(t_bool)dyn_storage"
          },
          {
            "astId": 1573,
            "contract": "contracts/Akuntabel.sol:Akuntabel",
            "label": "completed",
            "offset": 0,
            "slot": "8",
            "type": "t_bool"
          },
          {
            "astId": 1575,
            "contract": "contracts/Akuntabel.sol:Akuntabel",
            "label": "fundsReleased",
            "offset": 1,
            "slot": "8",
            "type": "t_bool"
          }
        ],
        "numberOfBytes": "288"
      },
      "t_struct(RoleData)19_storage": {
        "encoding": "inplace",
        "label": "struct AccessControl.RoleData",
        "members": [
          {
            "astId": 16,
            "contract": "contracts/Akuntabel.sol:Akuntabel",
            "label": "members",
            "offset": 0,
            "slot": "0",
            "type": "t_mapping(t_address,t_bool)"
          },
          {
            "astId": 18,
            "contract": "contracts/Akuntabel.sol:Akuntabel",
            "label": "adminRole",
            "offset": 0,
            "slot": "1",
            "type": "t_bytes32"
          }
        ],
        "numberOfBytes": "64"
      },
      "t_uint256": {
        "encoding": "inplace",
        "label": "uint256",
        "numberOfBytes": "32"
      },
      "t_uint8": {
        "encoding": "inplace",
        "label": "uint8",
        "numberOfBytes": "1"
      }
    }
  }
}